{
  "_format": "hh-sol-artifact-1",
  "contractName": "CharityTracker",
  "sourceName": "contracts/CharityTracker.sol",
  "abi": [
    {
      "inputs": [],
      "stateMutability": "nonpayable",
      "type": "constructor"
    },
    {
      "anonymous": false,
      "inputs": [
        {
          "indexed": true,
          "internalType": "address",
          "name": "donor",
          "type": "address"
        },
        {
          "indexed": false,
          "internalType": "uint256",
          "name": "amount",
          "type": "uint256"
        },
        {
          "indexed": false,
          "internalType": "uint256",
          "name": "timestamp",
          "type": "uint256"
        }
      ],
      "name": "DonationReceived",
      "type": "event"
    },
    {
      "anonymous": false,
      "inputs": [
        {
          "indexed": true,
          "internalType": "address",
          "name": "recipient",
          "type": "address"
        },
        {
          "indexed": false,
          "internalType": "uint256",
          "name": "amount",
          "type": "uint256"
        },
        {
          "indexed": false,
          "internalType": "string",
          "name": "description",
          "type": "string"
        },
        {
          "indexed": false,
          "internalType": "uint256",
          "name": "timestamp",
          "type": "uint256"
        }
      ],
      "name": "FundsWithdrawn",
      "type": "event"
    },
    {
      "inputs": [],
      "name": "donate",
      "outputs": [],
      "stateMutability": "payable",
      "type": "function"
    },
    {
      "inputs": [
        {
          "internalType": "uint256",
          "name": "",
          "type": "uint256"
        }
      ],
      "name": "donations",
      "outputs": [
        {
          "internalType": "address",
          "name": "donor",
          "type": "address"
        },
        {
          "internalType": "uint256",
          "name": "amount",
          "type": "uint256"
        },
        {
          "internalType": "uint256",
          "name": "timestamp",
          "type": "uint256"
        }
      ],
      "stateMutability": "view",
      "type": "function"
    },
    {
      "inputs": [
        {
          "internalType": "uint256",
          "name": "",
          "type": "uint256"
        }
      ],
      "name": "expenses",
      "outputs": [
        {
          "internalType": "string",
          "name": "description",
          "type": "string"
        },
        {
          "internalType": "uint256",
          "name": "amount",
          "type": "uint256"
        },
        {
          "internalType": "uint256",
          "name": "timestamp",
          "type": "uint256"
        }
      ],
      "stateMutability": "view",
      "type": "function"
    },
    {
      "inputs": [],
      "name": "getBalance",
      "outputs": [
        {
          "internalType": "uint256",
          "name": "",
          "type": "uint256"
        }
      ],
      "stateMutability": "view",
      "type": "function"
    },
    {
      "inputs": [],
      "name": "getDonations",
      "outputs": [
        {
          "components": [
            {
              "internalType": "address",
              "name": "donor",
              "type": "address"
            },
            {
              "internalType": "uint256",
              "name": "amount",
              "type": "uint256"
            },
            {
              "internalType": "uint256",
              "name": "timestamp",
              "type": "uint256"
            }
          ],
          "internalType": "struct CharityTracker.Donation[]",
          "name": "",
          "type": "tuple[]"
        }
      ],
      "stateMutability": "view",
      "type": "function"
    },
    {
      "inputs": [],
      "name": "getExpenses",
      "outputs": [
        {
          "components": [
            {
              "internalType": "string",
              "name": "description",
              "type": "string"
            },
            {
              "internalType": "uint256",
              "name": "amount",
              "type": "uint256"
            },
            {
              "internalType": "uint256",
              "name": "timestamp",
              "type": "uint256"
            }
          ],
          "internalType": "struct CharityTracker.Expense[]",
          "name": "",
          "type": "tuple[]"
        }
      ],
      "stateMutability": "view",
      "type": "function"
    },
    {
      "inputs": [],
      "name": "owner",
      "outputs": [
        {
          "internalType": "address",
          "name": "",
          "type": "address"
        }
      ],
      "stateMutability": "view",
      "type": "function"
    },
    {
      "inputs": [
        {
          "internalType": "address payable",
          "name": "recipient",
          "type": "address"
        },
        {
          "internalType": "uint256",
          "name": "amount",
          "type": "uint256"
        },
        {
          "internalType": "string",
          "name": "description",
          "type": "string"
        }
      ],
      "name": "withdrawFunds",
      "outputs": [],
      "stateMutability": "nonpayable",
      "type": "function"
    }
  ],
  "bytecode": "0x608060405234801561001057600080fd5b50336000806101000a81548173ffffffffffffffffffffffffffffffffffffffff021916908373ffffffffffffffffffffffffffffffffffffffff160217905550611353806100606000396000f3fe60806040526004361061007b5760003560e01c8063af4afe0a1161004e578063af4afe0a1461012a578063e25f841614610169578063ed88c68e14610194578063f8626af81461019e5761007b565b806312065fe01461008057806383a36a91146100ab5780638da5cb5b146100d65780639b81e17e14610101575b600080fd5b34801561008c57600080fd5b506100956101dd565b6040516100a29190610882565b60405180910390f35b3480156100b757600080fd5b506100c06101e5565b6040516100cd9190610a4e565b60405180910390f35b3480156100e257600080fd5b506100eb6102ea565b6040516100f89190610ab1565b60405180910390f35b34801561010d57600080fd5b5061012860048036038101906101239190610ba5565b61030e565b005b34801561013657600080fd5b50610151600480360381019061014c9190610c19565b610536565b60405161016093929190610c90565b60405180910390f35b34801561017557600080fd5b5061017e6105f8565b60405161018b9190610dce565b60405180910390f35b61019c6106c1565b005b3480156101aa57600080fd5b506101c560048036038101906101c09190610c19565b61080f565b6040516101d493929190610df0565b60405180910390f35b600047905090565b60606002805480602002602001604051908101604052809291908181526020016000905b828210156102e1578382906000526020600020906003020160405180606001604052908160008201805461023c90610e56565b80601f016020809104026020016040519081016040528092919081815260200182805461026890610e56565b80156102b55780601f1061028a576101008083540402835291602001916102b5565b820191906000526020600020905b81548152906001019060200180831161029857829003601f168201915b505050505081526020016001820154815260200160028201548152505081526020019060010190610209565b50505050905090565b60008054906101000a900473ffffffffffffffffffffffffffffffffffffffff1681565b60008054906101000a900473ffffffffffffffffffffffffffffffffffffffff1673ffffffffffffffffffffffffffffffffffffffff163373ffffffffffffffffffffffffffffffffffffffff161461039c576040517f08c379a000000000000000000000000000000000000000000000000000000000815260040161039390610ed3565b60405180910390fd5b478311156103df576040517f08c379a00000000000000000000000000000000000000000000000000000000081526004016103d690610f3f565b60405180910390fd5b6002604051806060016040528084848080601f016020809104026020016040519081016040528093929190818152602001838380828437600081840152601f19601f820116905080830192505050505050508152602001858152602001428152509080600181540180825580915050600190039060005260206000209060030201600090919091909150600082015181600001908161047e919061113a565b50602082015181600101556040820151816002015550508373ffffffffffffffffffffffffffffffffffffffff167fdd454410ae2f6512333f75f98a75dd67fe401010944d4512539f61aaafbeeef3848484426040516104e19493929190611248565b60405180910390a28373ffffffffffffffffffffffffffffffffffffffff166108fc849081150290604051600060405180830381858888f1935050505015801561052f573d6000803e3d6000fd5b5050505050565b6002818154811061054657600080fd5b906000526020600020906003020160009150905080600001805461056990610e56565b80601f016020809104026020016040519081016040528092919081815260200182805461059590610e56565b80156105e25780601f106105b7576101008083540402835291602001916105e2565b820191906000526020600020905b8154815290600101906020018083116105c557829003601f168201915b5050505050908060010154908060020154905083565b60606001805480602002602001604051908101604052809291908181526020016000905b828210156106b857838290600052602060002090600302016040518060600160405290816000820160009054906101000a900473ffffffffffffffffffffffffffffffffffffffff1673ffffffffffffffffffffffffffffffffffffffff1673ffffffffffffffffffffffffffffffffffffffff168152602001600182015481526020016002820154815250508152602001906001019061061c565b50505050905090565b60003411610704576040517f08c379a00000000000000000000000000000000000000000000000000000000081526004016106fb906112d4565b60405180910390fd5b600160405180606001604052803373ffffffffffffffffffffffffffffffffffffffff16815260200134815260200142815250908060018154018082558091505060019003906000526020600020906003020160009091909190915060008201518160000160006101000a81548173ffffffffffffffffffffffffffffffffffffffff021916908373ffffffffffffffffffffffffffffffffffffffff160217905550602082015181600101556040820151816002015550503373ffffffffffffffffffffffffffffffffffffffff167f4b0304ab2f313234b1cea012339c8f8c3bf2c8bb357d81a579cfdb35d2e3d03034426040516108059291906112f4565b60405180910390a2565b6001818154811061081f57600080fd5b90600052602060002090600302016000915090508060000160009054906101000a900473ffffffffffffffffffffffffffffffffffffffff16908060010154908060020154905083565b6000819050919050565b61087c81610869565b82525050565b60006020820190506108976000830184610873565b92915050565b600081519050919050565b600082825260208201905092915050565b6000819050602082019050919050565b600081519050919050565b600082825260208201905092915050565b60005b838110156109035780820151818401526020810190506108e8565b60008484015250505050565b6000601f19601f8301169050919050565b600061092b826108c9565b61093581856108d4565b93506109458185602086016108e5565b61094e8161090f565b840191505092915050565b61096281610869565b82525050565b600060608301600083015184820360008601526109858282610920565b915050602083015161099a6020860182610959565b5060408301516109ad6040860182610959565b508091505092915050565b60006109c48383610968565b905092915050565b6000602082019050919050565b60006109e48261089d565b6109ee81856108a8565b935083602082028501610a00856108b9565b8060005b85811015610a3c5784840389528151610a1d85826109b8565b9450610a28836109cc565b925060208a01995050600181019050610a04565b50829750879550505050505092915050565b60006020820190508181036000830152610a6881846109d9565b905092915050565b600073ffffffffffffffffffffffffffffffffffffffff82169050919050565b6000610a9b82610a70565b9050919050565b610aab81610a90565b82525050565b6000602082019050610ac66000830184610aa2565b92915050565b600080fd5b600080fd5b6000610ae182610a70565b9050919050565b610af181610ad6565b8114610afc57600080fd5b50565b600081359050610b0e81610ae8565b92915050565b610b1d81610869565b8114610b2857600080fd5b50565b600081359050610b3a81610b14565b92915050565b600080fd5b600080fd5b600080fd5b60008083601f840112610b6557610b64610b40565b5b8235905067ffffffffffffffff811115610b8257610b81610b45565b5b602083019150836001820283011115610b9e57610b9d610b4a565b5b9250929050565b60008060008060608587031215610bbf57610bbe610acc565b5b6000610bcd87828801610aff565b9450506020610bde87828801610b2b565b935050604085013567ffffffffffffffff811115610bff57610bfe610ad1565b5b610c0b87828801610b4f565b925092505092959194509250565b600060208284031215610c2f57610c2e610acc565b5b6000610c3d84828501610b2b565b91505092915050565b600082825260208201905092915050565b6000610c62826108c9565b610c6c8185610c46565b9350610c7c8185602086016108e5565b610c858161090f565b840191505092915050565b60006060820190508181036000830152610caa8186610c57565b9050610cb96020830185610873565b610cc66040830184610873565b949350505050565b600081519050919050565b600082825260208201905092915050565b6000819050602082019050919050565b610d0381610a90565b82525050565b606082016000820151610d1f6000850182610cfa565b506020820151610d326020850182610959565b506040820151610d456040850182610959565b50505050565b6000610d578383610d09565b60608301905092915050565b6000602082019050919050565b6000610d7b82610cce565b610d858185610cd9565b9350610d9083610cea565b8060005b83811015610dc1578151610da88882610d4b565b9750610db383610d63565b925050600181019050610d94565b5085935050505092915050565b60006020820190508181036000830152610de88184610d70565b905092915050565b6000606082019050610e056000830186610aa2565b610e126020830185610873565b610e1f6040830184610873565b949350505050565b7f4e487b7100000000000000000000000000000000000000000000000000000000600052602260045260246000fd5b60006002820490506001821680610e6e57607f821691505b602082108103610e8157610e80610e27565b5b50919050565b7f4e6f7420617574686f72697a6564000000000000000000000000000000000000600082015250565b6000610ebd600e83610c46565b9150610ec882610e87565b602082019050919050565b60006020820190508181036000830152610eec81610eb0565b9050919050565b7f496e73756666696369656e742066756e64730000000000000000000000000000600082015250565b6000610f29601283610c46565b9150610f3482610ef3565b602082019050919050565b60006020820190508181036000830152610f5881610f1c565b9050919050565b7f4e487b7100000000000000000000000000000000000000000000000000000000600052604160045260246000fd5b60008190508160005260206000209050919050565b60006020601f8301049050919050565b600082821b905092915050565b600060088302610ff07fffffffffffffffffffffffffffffffffffffffffffffffffffffffffffffffff82610fb3565b610ffa8683610fb3565b95508019841693508086168417925050509392505050565b6000819050919050565b600061103761103261102d84610869565b611012565b610869565b9050919050565b6000819050919050565b6110518361101c565b61106561105d8261103e565b848454610fc0565b825550505050565b600090565b61107a61106d565b611085818484611048565b505050565b5b818110156110a95761109e600082611072565b60018101905061108b565b5050565b601f8211156110ee576110bf81610f8e565b6110c884610fa3565b810160208510156110d7578190505b6110eb6110e385610fa3565b83018261108a565b50505b505050565b600082821c905092915050565b6000611111600019846008026110f3565b1980831691505092915050565b600061112a8383611100565b9150826002028217905092915050565b611143826108c9565b67ffffffffffffffff81111561115c5761115b610f5f565b5b6111668254610e56565b6111718282856110ad565b600060209050601f8311600181146111a45760008415611192578287015190505b61119c858261111e565b865550611204565b601f1984166111b286610f8e565b60005b828110156111da578489015182556001820191506020850194506020810190506111b5565b868310156111f757848901516111f3601f891682611100565b8355505b6001600288020188555050505b505050505050565b82818337600083830152505050565b60006112278385610c46565b935061123483858461120c565b61123d8361090f565b840190509392505050565b600060608201905061125d6000830187610873565b818103602083015261127081858761121b565b905061127f6040830184610873565b95945050505050565b7f4d7573742073656e642045544800000000000000000000000000000000000000600082015250565b60006112be600d83610c46565b91506112c982611288565b602082019050919050565b600060208201905081810360008301526112ed816112b1565b9050919050565b60006040820190506113096000830185610873565b6113166020830184610873565b939250505056fea2646970667358221220d71ba445ca27ba384d3699831537794705560d116321c9f51c41cb0f2415d52864736f6c63430008100033",
  "linkReferences": {},
  "deployedLinkReferences": {}
}